{
  "contractName": "LandManagement",
  "abi": [
    {
      "anonymous": false,
      "inputs": [
        {
          "indexed": true,
          "internalType": "address",
          "name": "user",
          "type": "address"
        },
        {
          "indexed": false,
          "internalType": "string",
          "name": "landId",
          "type": "string"
        },
        {
          "indexed": false,
          "internalType": "int256",
          "name": "latitude",
          "type": "int256"
        },
        {
          "indexed": false,
          "internalType": "int256",
          "name": "longitude",
          "type": "int256"
        }
      ],
      "name": "LandClaimed",
      "type": "event"
    },
    {
      "anonymous": false,
      "inputs": [
        {
          "indexed": true,
          "internalType": "address",
          "name": "user",
          "type": "address"
        },
        {
          "indexed": false,
          "internalType": "string",
          "name": "landId",
          "type": "string"
        }
      ],
      "name": "LandReleased",
      "type": "event"
    },
    {
      "anonymous": false,
      "inputs": [
        {
          "indexed": true,
          "internalType": "address",
          "name": "user1",
          "type": "address"
        },
        {
          "indexed": true,
          "internalType": "address",
          "name": "user2",
          "type": "address"
        },
        {
          "indexed": false,
          "internalType": "string",
          "name": "landId1",
          "type": "string"
        },
        {
          "indexed": false,
          "internalType": "string",
          "name": "landId2",
          "type": "string"
        }
      ],
      "name": "LandSwapped",
      "type": "event"
    },
    {
      "anonymous": false,
      "inputs": [
        {
          "indexed": true,
          "internalType": "address",
          "name": "user",
          "type": "address"
        }
      ],
      "name": "UserDeleted",
      "type": "event"
    },
    {
      "inputs": [
        {
          "internalType": "string",
          "name": "",
          "type": "string"
        }
      ],
      "name": "landRegistry",
      "outputs": [
        {
          "internalType": "bool",
          "name": "claimed",
          "type": "bool"
        },
        {
          "internalType": "address",
          "name": "owner",
          "type": "address"
        },
        {
          "internalType": "int256",
          "name": "latitude",
          "type": "int256"
        },
        {
          "internalType": "int256",
          "name": "longitude",
          "type": "int256"
        }
      ],
      "stateMutability": "view",
      "type": "function",
      "constant": true
    },
    {
      "inputs": [
        {
          "internalType": "address",
          "name": "",
          "type": "address"
        },
        {
          "internalType": "uint256",
          "name": "",
          "type": "uint256"
        }
      ],
      "name": "userLandInventory",
      "outputs": [
        {
          "internalType": "string",
          "name": "",
          "type": "string"
        }
      ],
      "stateMutability": "view",
      "type": "function",
      "constant": true
    },
    {
      "inputs": [
        {
          "internalType": "string",
          "name": "landId",
          "type": "string"
        },
        {
          "internalType": "int256",
          "name": "latitude",
          "type": "int256"
        },
        {
          "internalType": "int256",
          "name": "longitude",
          "type": "int256"
        }
      ],
      "name": "claimLand",
      "outputs": [],
      "stateMutability": "nonpayable",
      "type": "function"
    },
    {
      "inputs": [
        {
          "internalType": "string",
          "name": "landId",
          "type": "string"
        }
      ],
      "name": "releaseLand",
      "outputs": [],
      "stateMutability": "nonpayable",
      "type": "function"
    },
    {
      "inputs": [
        {
          "internalType": "string",
          "name": "landId1",
          "type": "string"
        },
        {
          "internalType": "string",
          "name": "landId2",
          "type": "string"
        },
        {
          "internalType": "address",
          "name": "user2",
          "type": "address"
        }
      ],
      "name": "swapLand",
      "outputs": [],
      "stateMutability": "nonpayable",
      "type": "function"
    },
    {
      "inputs": [],
      "name": "getUserInventory",
      "outputs": [
        {
          "internalType": "string[]",
          "name": "",
          "type": "string[]"
        }
      ],
      "stateMutability": "view",
      "type": "function",
      "constant": true
    },
    {
      "inputs": [
        {
          "internalType": "string",
          "name": "landId",
          "type": "string"
        }
      ],
      "name": "getLandDetails",
      "outputs": [
        {
          "internalType": "bool",
          "name": "claimed",
          "type": "bool"
        },
        {
          "internalType": "address",
          "name": "owner",
          "type": "address"
        },
        {
          "internalType": "int256",
          "name": "latitude",
          "type": "int256"
        },
        {
          "internalType": "int256",
          "name": "longitude",
          "type": "int256"
        }
      ],
      "stateMutability": "view",
      "type": "function",
      "constant": true
    },
    {
      "inputs": [],
      "name": "getAllLands",
      "outputs": [
        {
          "internalType": "string[]",
          "name": "landIds",
          "type": "string[]"
        },
        {
          "internalType": "address[]",
          "name": "owners",
          "type": "address[]"
        },
        {
          "internalType": "int256[]",
          "name": "latitudes",
          "type": "int256[]"
        },
        {
          "internalType": "int256[]",
          "name": "longitudes",
          "type": "int256[]"
        }
      ],
      "stateMutability": "view",
      "type": "function",
      "constant": true
    },
    {
      "inputs": [],
      "name": "deleteUser",
      "outputs": [],
      "stateMutability": "nonpayable",
      "type": "function"
    }
  ],
  "bytecode": "0x608080604052346015576117f1908161001b8239f35b600080fdfe6080604052600436101561001257600080fd5b60e060020a6000350463026ff05e8114610e665780632786e13f14610de057806359d08bbf14610d745780636e6995be146108e957806373de1e0b1461074257806381295df11461049e5780639a2ae37c146103cb578063b7b6e543146101135763f1e5971c1461008257600080fd5b3461010e57604036600319011261010e57600435600160a060020a0381169081900361010e57602435906000526001602052604060002090815481101561010e576100cc91611173565b6100f4576100dc6100f0916111e4565b604051918291602083526020830190611024565b0390f35b60e060020a634e487b710260009081526004819052602490fd5b600080fd5b3461010e57600036600319011261010e576000805b3360005260016020526040600020548110156101945733600052600160205260ff610169602061015c846040600020611173565b5060405192838092611381565b60008152030190205416610180575b600101610128565b9061018c6001916116be565b919050610178565b5061019e816112dc565b6101ab604051918261109f565b818152601f196101ba836112dc565b0160005b8181106103ba5750506101d0826112dc565b906101de604051928361109f565b8282526101ea836112dc565b602083019290601f1901368437610209610203856116cd565b946116cd565b600091825b3360005260016020526040600020548110156103395733600052600160205261024461023e826040600020611173565b506111e4565b604051908660ff8251936020818186019661026081838a611001565b81016000815203019020541661027c575b50505060010161020e565b610314602061033094848a956102976001999c6002976116ff565b526102a2868d6116ff565b5060405161010082516102b6818487611001565b8201916000835285818c60a08b0a0394030190205404166102d7878b6116ff565b528d610302878a604051878187516102f081838c611001565b810160008152030190200154926116ff565b52604051938492839251928391611001565b81016000815203019020015461032a82876116ff565b526116be565b93908886610271565b6103578584888a866020604051968796608088526080880190611049565b9186830382880152519182815201929060005b818110610398575050508161038a91856100f0959403604087015261113f565b90838203606085015261113f565b8251600160a060020a031685528796506020948501949092019160010161036a565b8060606020809386010152016101be565b3461010e57602036600319011261010e576004356001604060020a03811161010e5760206104006104139236906004016110c2565b8160405193828580945193849201611001565b60009082019081520301902060405190608082016001604060020a03811183821017610484576040526100f0606082549260ff8416151593848652610100600160a060020a039104169485602082015260026001830154928360408401520154928391015260405194859485611118565b60e060020a634e487b710260009081526041600452602490fd5b3461010e57602036600319011261010e576004356001604060020a03811161010e576104ce9036906004016110c2565b6104da815115156112f3565b60405161050860ff835192602081818701956104f7818389611001565b810160008152030190205416611338565b6000903360005260016020526040600020916000928054935b8481106106e2575b50506105369192506113ef565b33600052600160205260406000209060005b8254808210156106cf5761055c8285611173565b5060405161058081610572602082018095611381565b03601f19810183528261109f565b51902060405160208101906105af6020828a5161059e81878c611001565b81010301601f19810183528261109f565b519020146105c05750600101610548565b9192909160001981019081116106b557600093610602836105fd6002966105f76105ef60209761067f99611173565b509184611173565b90611628565b611637565b60405182818851610614818387611001565b81018881520301902060ff19815416905560405182818851610637818387611001565b81018881520301902061010060a8860a0319815416905584600160405184818a51610663818389611001565b8101858152030190200155604051809381928851928391611001565b810185815203019020015560008051602061179c83398151915260405160208152806106b033946020830190611024565b0390a2005b60e060020a634e487b710260009081526011600452602490fd5b50506000915061067f6020600292610602565b6106ec8183611173565b5060405161070281610572602082018095611381565b51902060405160208101906107206020828b5161059e81878d611001565b5190201461073057600101610521565b50505090506105366001829185610529565b3461010e57606036600319011261010e576004356001604060020a03811161010e576107729036906004016110c2565b6024359060443590610786815115156112f3565b6040519160ff825193602081818601966107a181838a611001565b8101600081520301902054166108a65780600261085b60207fb862879156b658872ef8068d4880e3aa5cfd6261a4fe36e69c3e41fcdcfbfd4496604051828189516107ed818387611001565b81016000815203019020600160ff198254161790556108296040518851610815818386611001565b810190600082528481339303019020611287565b88600160405184818b5161083e818389611001565b810160008152030190200155604051809381928951928391611001565b81016000815203019020015533600052600160205261087e826040600020611482565b61089360405192606084526060840190611024565b93602083015260408201528033930390a2005b60405160e560020a62461bcd0281526020600482015260156024820152605960020a742630b7321030b63932b0b23c9031b630b4b6b2b217026044820152606490fd5b3461010e57606036600319011261010e576004356001604060020a03811161010e576109199036906004016110c2565b6024356001604060020a03811161010e576109389036906004016110c2565b604435600160a060020a03811692919083900361010e5761095b825115156112f3565b610967815115156112f3565b6040519161098560ff825194602081818601976104f781838b611001565b604051926109a360ff845195602081818801986104f781838c611001565b6000933360005260016020526040600020946000958054965b878110610d10575b50506109d49192939495506113ef565b338514610cb9578460405161010086516109ef818487611001565b60009083019081528290036020019091205404600160a060020a031603610c62576040518351610a20818386611001565b6000908201908152602090829003019020546040518551610100909204600160a060020a031691610a52818386611001565b810190600082528060a060020a600190039203602001902054610100900416604051808651610a82818389611001565b81016000815203602001902090610a9891611287565b604051808651610aa9818387611001565b81016000815203602001902090610abf91611287565b604051808451610ad0818387611001565b81016000815203602001902060010154604051808551610af1818388611001565b8101600081520360200190206002015492604051808751610b13818388611001565b81016000815203602001902060010154604051808751610b34818387611001565b81016000815203602001902060010155604051808751610b55818388611001565b810160008152036020019020600201549060405180809288518092610b7992611001565b81016000815203602001902060020155604051808651610b9a818387611001565b8101600081520360200190206001015560405180809286518092610bbd92611001565b81016000815203602001902060020155336000526001602052604060002083600052600160205281604060002091610bf58282611712565b84610c008185611712565b610c0991611482565b610c1291611482565b60405180916040825260408201610c2891611024565b9281840360208301523393610c3c91611024565b037feddd8a451ded370b3b05586f9ef093c49c6022dea2633e272bde67fd8d6a064f91a3005b60405160e560020a62461bcd02815260206004820152602360248201527f557365723220646f6573206e6f74206f776e20746865207365636f6e64206c61604482015260e960020a62373217026064820152608490fd5b60405160e560020a62461bcd028152602060048201526024808201527f4c616e642063616e2774206265207377617070656420622f772073616d652075604482015260e060020a6373657273026064820152608490fd5b610d1a8183611173565b50604051610d3081610572602082018095611381565b51902085604051610d506020828b61059e83830196879251928391611001565b51902014610d60576001016109bc565b50949550859450600190506109d4886109c4565b3461010e57602036600319011261010e576004356001604060020a03811161010e576020610400610da99236906004016110c2565b8101600081520301902080546100f06002600184015493015460405193849360ff600160a060020a03610100830416911685611118565b3461010e57600036600319011261010e5733600052600160205260406000208054610e0a816112dc565b91610e18604051938461109f565b818352602083019060005260206000206000915b838310610e4957604051602080825281906100f090820188611049565b600160208192610e58856111e4565b815201920192019190610e2c565b3461010e57600036600319011261010e57336000526001602052604060002060005b8154811015610f495780610ea161023e60019385611173565b60006002610f0f6020604051855190828181890193610ec1818387611001565b81018881520301902060ff19815416905560405182818851610ee4818387611001565b81018881520301902061010060a8860a03198154169055848860405184818a51610663818389611001565b810185815203019020015560008051602061179c8339815191526040516020815280610f4033946020830190611024565b0390a201610e88565b33600052600160205260406000208054906000815581610f8c575b337f4bc56f1321288dfb5b416cb3a7fd188723979f9e866c91d88eccf7fca039d039600080a2005b6000526020600020908101905b81811015610f6457600190610fae81546111a5565b80610fbb575b5001610f99565b601f81118314610fd15750600081555b83610fb4565b610fee9082600052836020601f81600020930104820191016112b5565b8060005260006020812081835555610fcb565b60005b8381106110145750506000910152565b8181015183820152602001611004565b9060209161103d81518092818552858086019101611001565b601f01601f1916010190565b805180835260208181028401810193928101926000918101905b83831061107257505050505090565b9091929394602080611090600193601f198682030187528951611024565b97019301930191939290611063565b601f909101601f19168101906001604060020a0382119082101761048457604052565b81601f8201121561010e578035906001604060020a03821161048457604051926110f6601f8401601f19166020018561109f565b8284526020838301011161010e57816000926020809301838601378301015290565b90949392606092608083019615158352600160a060020a0316602083015260408201520152565b906020808351928381520192019060005b81811061115d5750505090565b8251845260209384019390920191600101611150565b805482101561118b5760005260206000200190600090565b60e060020a634e487b710260009081526032600452602490fd5b90600160028304921680156111da575b60208310146111c057565b60e060020a634e487b710260009081526022600452602490fd5b91607f16916111b5565b90604051918260008254926111f8846111a5565b8084529360018116908115611266575060011461121f575b5061121d9250038361109f565b565b90506000929192526020600020906000915b81831061124a57505090602061121d9282010138611210565b6020919350806001915483858901015201910190918492611231565b90506020925061121d94915060ff1916828401521515810282010138611210565b805461010060a860020a031916600160a060020a039092166101000261010060a860020a0316919091179055565b8181106112c0575050565b600081556001016112b5565b9060080260020a60001904191690565b6001604060020a0381116104845760208091020190565b156112fa57565b60405160e560020a62461bcd0281526020600482015260106024820152608160020a6f24b73b30b634b2103630b7321024a217026044820152606490fd5b1561133f57565b60405160e560020a62461bcd0281526020600482015260146024820152606160020a732630b7321034b9903737ba1031b630b4b6b2b217026044820152606490fd5b60009291815491611391836111a5565b92600181169081156113dc57506001146113aa57505050565b909192935060005260206000206000905b8382106113c85750500190565b6001816020925484860152019101906113bb565b60ff191683525050811515909102019150565b156113f657565b60405160e560020a62461bcd0281526020600482015260196024820152603960020a782cb7ba903237903737ba1037bbb7103a3434b9903630b73217026044820152606490fd5b9190601f811161144c57505050565b61121d92600052602060002090602080601f85010483019310611478575b601f602091010401906112b5565b909150819061146a565b8054604060020a8110156104845761149f91600182018155611173565b9190916100f4578051906001604060020a038211610484576114cb826114c585546111a5565b8561143d565b81602091601f8211600114611502576114ee92600091836114f7575b50506112cc565b90600202179055565b0151905038806114e7565b9050601f1983169184600052806000209260005b81811061155157509160029391856001969410611537575b50505002019055565b611547910151601f8416906112cc565b905538808061152e565b91936020600181928787015181550195019201611516565b908082146116245761157b81546111a5565b906001604060020a03821161048457611598826114c585546111a5565b816000601f82116001146115c55781906114ee936000926115ba5750506112cc565b0154905038806114e7565b91825250602080822084835290822091601f198416815b81811061160c575091600293918560019694106115fc5750505002019055565b611547910154601f8416906112cc565b919360018060209287870154815501950192016115dc565b5050565b91906100f45761121d91611569565b805480156116a457600019019061164e8282611173565b6100f45761165c81546111a5565b908161166757505055565b81601f6000931160011461167a57505555565b6116969082845260016020601f818720930104820191016112b5565b808252816020812091555555565b60e060020a634e487b710260009081526031600452602490fd5b60001981146106b55760010190565b906116d7826112dc565b6116e4604051918261109f565b82815280926116f5601f19916112dc565b0190602036910137565b805182101561118b576020809202010190565b60005b815480821015611795576117298284611173565b5060405161173f81610572602082018095611381565b51902060405160208101906117616020828161059e8b87815193849201611001565b519020146117725750600101611715565b90925060001981019081116106b55761121d926105f76105ef6105fd9385611173565b5050505056fe42c58bc7ebc3c1336d17ddc720da0458a1d8ae2664cae30a397e4271d37a600fa2646970667358221220cea51b5895298967d1be4f5c626bbf03680beb07f036235b6f27799280e585cf64736f6c634300081d0033",
  "immutableReferences": {},
  "source": "// SPDX-License-Identifier: MIT\npragma solidity ^0.8.0;\n\ncontract LandManagement {\n    struct Land {\n        bool claimed;\n        address owner;\n        int256 latitude;\n        int256 longitude;\n    }\n\n    mapping(string => Land) public landRegistry;\n    mapping(address => string[]) public userLandInventory;\n\n    event LandClaimed(address indexed user, string landId, int256 latitude, int256 longitude);\n    event LandReleased(address indexed user, string landId);\n    event LandSwapped(address indexed user1, address indexed user2, string landId1, string landId2);\n    event UserDeleted(address indexed user);\n\n    modifier onlyOwner(string memory landId) {\n        require(landRegistry[landId].owner == msg.sender, \"You do not own this land.\");\n        _;\n    }\n\n    modifier landNotClaimed(string memory landId) {\n        require(!landRegistry[landId].claimed, \"Land already claimed.\");\n        _;\n    }\n\n    modifier landClaimed(string memory landId) {\n        require(landRegistry[landId].claimed, \"Land is not claimed.\");\n        _;\n    }\n\n    modifier userHasLand(string memory landId) {\n        bool ownsLand = false;\n        string[] storage userLands = userLandInventory[msg.sender];\n        for (uint256 i = 0; i < userLands.length; i++) {\n            if (keccak256(abi.encodePacked(userLands[i])) == keccak256(abi.encodePacked(landId))) {\n                ownsLand = true;\n                break;\n            }\n        }\n        require(ownsLand, \"You do not own this land.\");\n        _;\n    }\n\n    modifier validLandId(string memory landId) {\n        require(bytes(landId).length > 0, \"Invalid land ID.\");\n        _;\n    }\n\n    function claimLand(string memory landId, int256 latitude, int256 longitude) \n        public \n        validLandId(landId) \n        landNotClaimed(landId) \n    {\n        landRegistry[landId].claimed = true;\n        landRegistry[landId].owner = msg.sender;\n        landRegistry[landId].latitude = latitude;\n        landRegistry[landId].longitude = longitude;\n\n        userLandInventory[msg.sender].push(landId);\n\n        emit LandClaimed(msg.sender, landId, latitude, longitude);\n    }\n\n    function releaseLand(string memory landId) public validLandId(landId) landClaimed(landId) userHasLand(landId) {\n        string[] storage userLands = userLandInventory[msg.sender];\n        for (uint256 i = 0; i < userLands.length; i++) {\n            if (keccak256(abi.encodePacked(userLands[i])) == keccak256(abi.encodePacked(landId))) {\n                userLands[i] = userLands[userLands.length - 1];\n                userLands.pop();\n                break;\n            }\n        }\n\n        landRegistry[landId].claimed = false;\n        landRegistry[landId].owner = address(0);\n        landRegistry[landId].latitude = 0;\n        landRegistry[landId].longitude = 0;\n\n        emit LandReleased(msg.sender, landId);\n    }\n\n    function swapLand(string memory landId1, string memory landId2, address user2) public validLandId(landId1) validLandId(landId2) landClaimed(landId1) landClaimed(landId2) userHasLand(landId1) {\n        require(user2 != msg.sender, \"Land can't be swapped b/w same users\");\n        require(landRegistry[landId2].owner == user2, \"User2 does not own the second land.\");\n\n        address tempOwner = landRegistry[landId1].owner;\n        landRegistry[landId1].owner = landRegistry[landId2].owner;\n        landRegistry[landId2].owner = tempOwner;\n\n        int256 tempLat = landRegistry[landId1].latitude;\n        int256 tempLng = landRegistry[landId1].longitude;\n        \n        landRegistry[landId1].latitude = landRegistry[landId2].latitude;\n        landRegistry[landId1].longitude = landRegistry[landId2].longitude;\n        \n        landRegistry[landId2].latitude = tempLat;\n        landRegistry[landId2].longitude = tempLng;\n\n        _swapLandInInventory(landId1, landId2, msg.sender, user2);\n\n        emit LandSwapped(msg.sender, user2, landId1, landId2);\n    }\n\n    function _swapLandInInventory(string memory landId1, string memory landId2, address user1, address user2) private {\n        string[] storage user1Lands = userLandInventory[user1];\n        string[] storage user2Lands = userLandInventory[user2];\n\n        _removeLandFromInventory(user1Lands, landId1);\n        _removeLandFromInventory(user2Lands, landId2);\n\n        user1Lands.push(landId2);\n        user2Lands.push(landId1);\n    }\n\n    function _removeLandFromInventory(string[] storage lands, string memory landId) private {\n        for (uint256 i = 0; i < lands.length; i++) {\n            if (keccak256(abi.encodePacked(lands[i])) == keccak256(abi.encodePacked(landId))) {\n                lands[i] = lands[lands.length - 1];\n                lands.pop();\n                break;\n            }\n        }\n    }\n\n    function getUserInventory() public view returns (string[] memory) {\n        return userLandInventory[msg.sender];\n    }\n\n    function getLandDetails(string memory landId) public view returns (bool claimed, address owner, int256 latitude, int256 longitude) {\n        Land memory land = landRegistry[landId];\n        return (land.claimed, land.owner, land.latitude, land.longitude);\n    }\n\n    function getAllLands() public view returns (string[] memory landIds, address[] memory owners, int256[] memory latitudes, int256[] memory longitudes) {\n        uint256 count = 0;\n        for (uint256 i = 0; i < userLandInventory[msg.sender].length; i++) {\n            if (landRegistry[userLandInventory[msg.sender][i]].claimed) {\n                count++;\n            }\n        }\n        \n        landIds = new string[](count);\n        owners = new address[](count);\n        latitudes = new int256[](count);\n        longitudes = new int256[](count);\n        \n        uint256 index = 0;\n        for (uint256 i = 0; i < userLandInventory[msg.sender].length; i++) {\n            string memory landId = userLandInventory[msg.sender][i];\n            if (landRegistry[landId].claimed) {\n                landIds[index] = landId;\n                owners[index] = landRegistry[landId].owner;\n                latitudes[index] = landRegistry[landId].latitude;\n                longitudes[index] = landRegistry[landId].longitude;\n                index++;\n            }\n        }\n        \n        return (landIds, owners, latitudes, longitudes);\n    }\n\n    function deleteUser() public {\n        string[] storage userLands = userLandInventory[msg.sender];\n\n        for (uint256 i = 0; i < userLands.length; i++) {\n            string memory landId = userLands[i];\n            landRegistry[landId].claimed = false;\n            landRegistry[landId].owner = address(0);\n            landRegistry[landId].latitude = 0;\n            landRegistry[landId].longitude = 0;\n\n            emit LandReleased(msg.sender, landId);\n        }\n\n        delete userLandInventory[msg.sender];\n\n        emit UserDeleted(msg.sender);\n    }\n}\n",
  "sourcePath": "/Users/paras07/Documents/multisig-wallet/contracts/LandManagement.sol",
  "compiler": {
    "name": "solc",
    "version": "0.8.29+commit.ab55807c.Emscripten.clang"
  },
  "schemaVersion": "3.4.16",
  "updatedAt": "2025-04-20T14:49:49.083Z",
  "networkType": "ethereum",
  "devdoc": {
    "kind": "dev",
    "methods": {},
    "version": 1
  },
  "userdoc": {
    "kind": "user",
    "methods": {},
    "version": 1
  }
}